S0240000417A757265436C6F7564434B5241364D35583530395F4653503432302E7372656355
S3150000000098C60120A9960500D5940500A596050079
S31500000010A5960500A5960500A5960500A5960500DA
S31500000020000000000000000000000000A59605008A
S31500000030A59605000000000035B60200B1B6020024
S31500000040C9760500797A0500797A0500A59205003A
S315000000503571050075720500697305003174050078
S31500000060C9760500C9760500B9E50200C1E40200BB
S3150000007041E7020089E7020029840500B1830500F3
S31500000080000000000000000000000000000000006A
S31500000090000000000000000000000000000000005A
S315000000A0000000000000000000000000000000004A
S315000000B0000000000000000000000000000000003A
S315000000C0000000000000000000000000000000002A
S315000000D0000000000000000000000000000000001A
S315000000E0000000000000000000000000000000000A
S315000000F000000000000000000000000000000000FA
S3150000010000000000000000000000000000000000E9
S3150000011000000000000000000000000000000000D9
S3150000012000000000000000000000000000000000C9
S3150000013000000000000000000000000000000000B9
S3150000014000000000000000000000000000000000A9
S315000001500000000000000000000000000000000099
S315000001600000000000000000000000000000000089
S315000001700000000000000000000000000000000079
S315000001800000000000000000000000000000000069
S315000001900000000000000000000000000000000059
S315000001A00000000000000000000000000000000049
S315000001B00000000000000000000000000000000039
S315000001C0FFFFFFFFFFFFFFFFFFFFFFFFFFFFFFFF39
S315000001D0FFFFFFFFFFFFFFFFFFFFFFFFFFFFFFFF29
S315000001E0FFFFFFFFFFFFFFFFFFFFFFFFFFFFFFFF19
S315000001F0FFFFFFFFFFFFFFFFFFFFFFFFFFFFFFFF09
S3150000020010B5054C237833B9044B13B1044800E00C
S3150000021000BF0123237010BDF80700200000000076
S31500000220085D060008B5034B1BB10349034800E00F
S3150000023000BF08BD00000000FC070020085D0600A6
S315000002402DE9F0472DED028B6D4BB0EE408A93F809
S3150000025000C005460CF1010C5FFA8CF60C2E00F27C
S315000002609280DFF8A8A1DFF8A8819AF900401E70F5
S3150000027008EB840383ED000A10EE100A5AF0B0F979
S3150000028041EC100B0C205AF0B7FF51EC100B5AF052
S3150000029099FC04F101094FFA89F35A4F00B20C2B6D
S315000002A05FFA89F927F8140000F09B808AF800307D
S315000002B02346002E00F09D804FF0000CDFED527AB1
S315000002C0624603E091ED008A37F91400E1B24C1E54
S315000002D064B2002C0CF1010CB8BF0B315FFA8CFE36
S315000002E0B8BF4CB2B64577EE887A024408EB840173
S315000002F0E8D307EE106AB8EEC77A002B92FBF6FE3B
S3150000030087EE878A02DA09F10B035BB20020844686
S31500000310D9B237F913204B1E5BB2002B00F1010056
S31500000320B8BF01F10B03C4B2A2EB0E02B8BF5BB2B9
S31500000330B44202FB02CCEBD3BCFBF6FC0F224FF41B
S315000003400044002004EB40039340634502F1FF3272
S315000003509CBF0019ACEB030C531C4FEA5404F1D1BB
S315000003605AF01CF941EC100B6FF00B005AF044FFE9
S3150000037051EC100B5AF06EFCB0EE480ABDEC028B45
S315000003802860BDE8F0870C26DFF880A0DFF88080C3
S315000003909AF900401E7008EB840282ED000A10EE06
S315000003A0100A5AF01DF941EC100B30465AF024FFA2
S315000003B051EC100B5AF006FC04F101094FFA89F3CF
S315000003C0104F00B2B3425FFA89F927F814007FF4A0
S315000003D06DAF4FF000091E468AF800904FF0FF33CC
S315000003E06AE74FF000098AF8009016B14FF0FF3324
S315000003F062E7DFED057A4FF0000C87EEA78A9DE7EE
S315000004007C08002048080020000000004408002066
S315000004101408002010B5438800F5805292F86F4109
S315000004209BB200F2AA4200F22A7E00EB430103F1DE
S31500000430010C1CB1B1F92C3CA2F88232B1F9AC190D
S315000004401FFA8CF3B3F5A07F22F8021F08BF002322
S315000004509645EAD1838110BD00B50F224FF4004CBA
S315000004604FF0000E0CEB4E039340984202F1FF3220
S3150000047024BFE644C01A531C4FEA5C0CF2D1704606
S315000004805DF804FB4FF4B172D0F8981F836907EE4C
S31500000490901A02FB03F3DB08B8EEE77A07EE903A10
S315000004A0F8EEE77AC7EE876AC0ED086A00F5805174
S315000004B091F86F31ABB1C36902FB03F3D0F89C2FFF
S315000004C0DB0807EE902AB8EEE77A07EE903AF8EEE8
S315000004D0E77A87EE876AC6EE267A80ED096AC0ED6E
S315000004E0057A1C4BDB8DB3F5727F4FEAD30203D33B
S315000004F0002380F8E83F70476D2A25D8012380F84D
S31500000500E83FDFED157AF4EEE76AF1EE10FA1ADD50
S31500000510B0F9E43F452B16DD8C2BA8BF8C230F4A80
S31500000520463B1BB2A2FB03235B0807EE903A9FED06
S315000005300C6AF8EEE77A90ED057AC7EE866A77EEF2
S31500000540667AC0ED057A704790F8E83F012BD8D05F
S31500000550704700BFAC1D0020CDCCCC3D398EE338B2
S315000005600000C8422DE9F04F47F230580C46016AA8
S31500000570DFF8C0E1521A4245A8BF42467245B8BFED
S31500000580724604F5805696F86F71944683B03FB173
S31500000590456A5D1B4545A8BF45467545B8BF7546C6
S315000005A094F8201F002947D14FF0010E5F4B0A46F1
S315000005B0196008467346DFF88091DFF8808189F874
S315000005C000100131C9B2082984F8201F46D06244C0
S315000005D0C8F80020DFF8688128F810C0002F61D124
S315000005E0082989F800E040F28C80D21011B2002070
S315000005F094F8B22E0193DFF84C8101F0A7FB96F830
S315000006006F21B8F9EE70019B002A5AD163889BB21C
S3150000061004EB4303A3F8AC79638801339BB2638090
S3150000062063889BB2B3F5A07F2EBF002363889BB27D
S31500000630638003B0BDE8F08F072968D9DFF8F8902A
S31500000640DFF8F88099F80000082900F1010E4FF054
S315000006500003D8F800200EF0070EB8D1DFF8E0A0AE
S315000006603AF910B0A2EB0B02C8F80020002F41D0D7
S315000006702F492E4F89F800E031F910E021F810508B
S3150000068039686244A1EB0E010D440821C8F8002028
S31500000690002AB8BF07322AF810C03D60D21095FB79
S315000006A0F1F5A3E7214FDFF888C008292CF8105090
S315000006B0386889F800E005443D6025D9D210ED1070
S315000006C094E794F8B22E29B2012001F03FFB63882B
S315000006D096F86F119BB204EB4303B8F9DE21A3F839
S315000006E0AC79002998D063889BB204EB4303A3F846
S315000006F02C2C91E762442AF810C089F800E0C8F86B
S31500000700002092FBF1F271E792FBF1F2C7E7DFF806
S315000007102890DFF8288099F80000002300F1010EE8
S31500000720D8F800200EF0070E4BE700BF9408002013
S31500000730840800200080FFFF600800207808002061
S31500000740680800200C1A00202DE9F04190F85B643F
S31500000750DDE90684D6B908F109052D1B122D63D9EA
S31500000760C8F80060C8F80460A8F8086026606660EB
S31500000770268123F8112003EB4105012301FA03F733
S3150000078003FA01F10E4380F85B6406E046FA01F5D0
S31500000790ED07EED503EB41054F000F214FF4004C5A
S315000007A04FF0000EE35FB5F9006003FB03F3961B01
S315000007B006FB06F05E083C4406EB50060CEB4E03C7
S315000007C08B40B34201F1FF319CBFE644F61A4B1C45
S315000007D04FEA5C0CF2D128F807E02388AEEB030E53
S315000007E00FFA8EFEBEF1000F15DBCEF34F0E9E44C0
S315000007F0A4F800E042B12B88D21A12B2002A05DB17
S31500000800C2F34F021A442A80BDE8F08152425210C8
S31500000810524292B2F6E7CEF1000E4FEA6E0ECEF1DC
S31500000820000E1FFA8EFEE2E7A8F10205A71E08F1E8
S31500000830080C25F8026FAC4527F8026FF9D198E746
S315000008402DE9F04700F5D07800250446464682B0EB
S3150000085000F5C67A00F5CB7900F244477A7953461B
S31500000860D2002046CDE90098E9B2FFF76DFF17F8F0
S31500000870012B2AB1B6F90030DB0093FBF2F212B27B
S315000008800135052DA6F8AE2206F10206E6D10327AC
S31500000890554D84F85874B5F89A000321782888BF16
S315000008A00427002384F8B47104F24E4C01370BE0A0
S315000008B0B2F94EE40A46B64503DD1A46D9B284F8C3
S315000008C058140133BB4209D03CF9026B04EB4102D8
S315000008D0002EEDDC0133BB420A46F5D102EB4202A3
S315000008E094F859349200511D99424EDB0133DBB224
S315000008F084F859343D4AA2FB0323C3F3C70384F8A3
S315000009005A34234493F84914002956D1A0F114030C
S31500000910B3F58C7F33D8B4F9985494F8B5118D4259
S315000009203BDA334A6B1C1BB21380B4F99A241D467A
S31500000930A4F89834531C1BB2994208BF002304EB59
S315000009404202002DA2F85C04A4F89A3417DD0023B5
S3150000095004F25A4202EB450032F8021F0B44904261
S315000009601BB2F9D193FBF5F31AB243B14FF4165308
S31500000970B3FBF2F3C4F8883102B0BDE8F087002378
S31500000980C4F8883102B0BDE8F08706329342B1DD83
S31500000990013BDBB284F85934ACE71E2908D0144A6F
S315000009A0B2F90030182B15D0172BDCBF013313809A
S315000009B0B4F99A24531C1BB2BEE74FF43473B3FB4D
S315000009C0F1F104200022C4F89C1401F0A9FFB5F847
S315000009D09A009BE71E216B1C1BB22A46A4F898348A
S315000009E01D4684F8B511A7E7AC1D0020ABAAAAAA3C
S315000009F09808002001291FD900220346104610B48A
S31500000A001C1F04EB810C5C6853F8041B8C4209DC48
S31500000A1003DA4FF0FF3142B90A466345F3D15DF878
S31500000A20044B70470121002AF6D0914200F10104DF
S31500000A30F3D00A46E0B2F0E700207047036810B52D
S31500000A40002B86463ADB14BF012400240129D8BFB7
S31500000A50002017DD01230020ACB15EF82320002A18
S31500000A601EDB14BF4FF0010C4FF0000CA44505D05F
S31500000A7000F1010C002A5FFA8CF008DB0133C2B9E1
S31500000A808B42E9DB10BD5EF82320002AF6DA01333B
S31500000A908B424FF0FF34F5DA5EF82320002AE0DAC5
S31500000AA0B4F1FF3FE4D101338B424FF0FF34F3DB67
S31500000AB0E8E78B424FF00104CFDB10BD4FF0FF3467
S31500000AC0C4E700BF2DE9F04F90F88441C16D04F1F1
S31500000AD0180200F51A7540F8221082462346294668
S31500000AE085B0621E00F5637005E0002A1346B8BFA4
S31500000AF002F14903013A18335AF8233041F8043F0A
S31500000B008142F2D1631CDBB2482B8AF884315AD970
S31500000B10012300228AF844308AF884218AF8283F83
S31500000B2004270AF2AF1301930AF51B7302930AF521
S31500000B3047730AF5DC790AF564780AF5D57B0AF578
S31500000B40DA76039300233446B6461BF8011BCAF82F
S31500000B50B831029B17FB013C0A4649B100220EF14F
S31500000B60B80353F8040B63450244FAD192FBF1F241
S31500000B704EF8042FAE450CF1040CEDD14846009119
S31500000B80FFF738FF0099039B49088BF8990217FB7A
S31500000B9001300AEB810101F51A7353F8042F54F85A
S31500000BA0041F8342A2EB0102C4F8D821F5D12D21FE
S31500000BB04046FFF743FF019B8BF89E029B45C1D140
S31500000BC005B0BDE8F08F9AF84430002BA8D105B0E7
S31500000BD0BDE8F08F2DE9F04F40F25E460027554CF8
S31500000BE080F8217FE58D6C1EA4B2B44298BF4BF607
S31500000BF08037B1F900609ABFB7FBF5F701243C4690
S31500000C00012AB4461AD9951E1FFA85FE0D1D05EB5D
S31500000C104E0501F1020E06E0C4450EF1020EB8BF04
S31500000C20C44675450AD0BEF90080002BF4D1C445F0
S31500000C300EF1020EA8BFC4467545F4D13E4D4FEAEB
S31500000C404C0C85FB0CE54FEAEC7CCCEB650C002BE1
S31500000C5058D0A6EB0C0636B2002E57DB14BF012582
S31500000C600025012AD8BF002626DD00260123B1462D
S31500000C70B0467F081FFA8CFE0DE0BCF1000F1EDBAC
S31500000C8029D106F1010A5FFA8AFAACBB564601334E
S31500000C901BB2934210DA31F813C0ACEB0E0C0FFA0C
S31500000CA08CFC002DE9D1BCF1000F11DBEFD0012542
S31500000CB001331BB29342EEDB3046BDE8F08FB5F14F
S31500000CC0FF3FE4D006F1010A5FFA8AFA54B95646A4
S31500000CD04FF0FF35DBE7012DE9D006F1010A5FFA97
S31500000CE08AFA1CB3B8F1000F03D0B9F1000F10D186
S31500000CF0C14656469846D6E7B8F1000FF5D1564696
S31500000D009846C4E7664436B2002EA7DA4FF0FF35A0
S31500000D10A7E7A3EB090B0FFA8BFBBB45E8DA90F8C4
S31500000D2021AF0AF1010A80F821AFBCE7564601253A
S31500000D30BEE700BFAC1D002067666666B5EEC00A5A
S31500000D40F1EE10FA01DDFFF77BBA0021034600221F
S31500000D50044810B4044C017021701A605DF8044B0D
S31500000D60704700BF440800207C08002030B4194CAE
S31500000D70B4F87650B4F80AC0B5B1A2EB0C0343F34D
S31500000D800A030FFA8CF25B0193FBF2F3B4F88820A6
S31500000D901BB25201B2FBF5F2002BB8BF5B421BB28D
S31500000DA0062BA0F8AE2E02DD30BC604670470A4A1C
S31500000DB094F88030D2789A4284BF013384F8803028
S31500000DC0B0F9A034092BD4BF8C46AC4630BC604683
S31500000DD0704700BFAC1D0020B8DE0500B0F8763FB6
S31500000DE0B0F9E61F012B10B5B0F8E62F0446A0F8BF
S31500000DF0501005D90022032001F092FDB4F85020CE
S31500000E002046B4F8241FFFF7B1FFA4F8AC0E18B1C2
S31500000E10024BB3FBF0F080B2608510BD00DC05002C
S31500000E208B1E052B00F28B802DE9F04F0124002745
S31500000E3047F6FF7A04FA01F81FFA88F8C8F5A07693
S31500000E400136B6B200F58053168093F86F314D1E09
S31500000E5089B0AC400493A3B20794A8EB03040297AD
S31500000E6005930694C3F101090024BB0001932346B0
S31500000E7007EB870500EBC51505F2AC4535F902CB46
S31500000E80013463441FFA84FCE045F7D8741E002C35
S31500000E904FDD0026019CCDF80C8004EB070C059D68
S31500000EA0DDF818804FEA8C1C0CEB0504664400EB59
S31500000EB0440400EB460EB4F9AC6443FA01F4341B67
S31500000EC0224EB442B8BF34465445A8BF544605EB3B
S31500000ED008061CFA86F600EB4606B6F9ACB4BEF96F
S31500000EE0AC64AEF8AC4414889B1B05EB0906B6B29D
S31500000EF0013C0135A6425B44ADB2D5DBDDF80C8082
S31500000F00019E0B413E4405EB861500EB450504EBBF
S31500000F108617B5F8AC4400EB4707E31A029CA7F81E
S31500000F20AC340134049BE7B2BB42029403D3168867
S31500000F309AE7079DE4E7002009B0BDE8F08F4FF47B
S31500000F40A0734FF0FF301380704700BF0080FFFF93
S31500000F50F0B50025AC462B4600F5805292F86F712D
S31500000F604FF00006013500EB8C0200EB4C0E00EB57
S31500000F700C040CEB4C015FFA85FC00EBC1016745E4
S31500000F80AEF8D23FC2F82C3FAEF8343FC2F8383F35
S31500000F90AEF8403FC2F8443FAEF84C3FC2F8503F6F
S31500000FA0AEF8603FC2F8583FA2F8683FA2F86A3F21
S31500000FB0AEF8643F84F8743F84F87B3F84F8796F19
S31500000FC0C2F8883FC2F8983F84F8D83F84F8DA3FE1
S31500000FD0C1F8A03FC1F8A43FC1F8A83FC1F8AC3F93
S31500000FE0C1F8B03FC1F8B43FBAD2EF212822C0F809
S31500000FF0903F80F8783F80F8D06FA0F8D63FA0F8F1
S31500001000763FC0F8DC3FC0F8E03FC0F8E43F80F828
S31500001010941F80F87D2FF0BD2DE9F04308230025AD
S315000010204FF0000C144685B082F8B23EC2F814C0E8
S315000010305580A2F8AC5EA2F8505082F85A50D56599
S31500001040A2F8225FA2F8245F06460F460120194641
S3150000105000F060FE284694F8B21E00F05BFE0B21FD
S315000010600C22A4F81E5F84F8205F1325404BDFF89E
S3150000107010C184F8B51193E8030004F5D57303F89D
S31500001080012B00908DF804109CE8030004F2AF1CBD
S31500001090634502908DF80C100DF101000DF1090168
S315000010A01D7108D010F8012B11F8015B03F8012B14
S315000010B063451D71F6D100254FF00109042084F81F
S315000010C04450C4F8885184F8845184F85954A4F8DB
S315000010D05A54C4F89C5401F037FBA585284625636D
S315000010E0C4E91255C4E90E55C4F89854656384F8EA
S315000010F0E89F01F029FB484601F026FB022001F09B
S3150000110023FB4FF00008032001F01EFB04221949BF
S31500001110194B0D70194983F880900D7004F2A441A3
S31500001120C1F8008004F59561C1F8008083F83A2083
S3150000113083F85E20204684F8285FA4F8A054FFF7C1
S3150000114007FF384600F0AAFF04F58053C4F8248050
S31500001150C4F820806565A4F8B05EA3F86C5183F8E6
S315000011606E5196F8732083F86F2105B0BDE8F083C1
S3150000117080DE05007C080020AC1D0020440800200D
S3150000118088DE05002DE9F04FD0F8907F83B0012F5F
S3150000119040F23E81002400F5805393F86F314FF002
S315000011A0010901932346DFF8CC820094C21892F815
S315000011B0791F00295AD003F2CA3E00EB8E056D68EE
S315000011C090F87D6F7D1BB54240F2C18090F8D7CF75
S315000011D0664502D26545C0F004814FF0000182F8F1
S315000011E0791F00EB4301B1F9D25F38F913C06545A9
S315000011F046DC92F8791F0131C9B2B14282F8791FF3
S3150000120004D392F8D81F002900F0C48092F87B1FFF
S3150000121091B103F2CE3A50F82A40A7EB040EB64538
S3150000122033D990F8D7BFB34502D9DE45C0F0CC809C
S315000012304FF0000182F87B1FAC4500F3838092F8E3
S315000012407B1F0131C9B2B14282F87B1F02D392F8EB
S31500001250DA1F71B3009A28F813500132D3B2009204
S31500001260019A9342A2D903B0BDE8F08F00EB430187
S31500001270B1F9D25F38F913C090F87D6F6545B8DDD6
S3150000128003F2CA3E03F5F36A73E0AC45D9DD03F514
S31500001290F46C30F91CE0AE45D3DD4FF00001012EB1
S315000012A082F8DA1F40F82A7020F81C5082F87B9FDB
S315000012B0D0D882F8DA9F00EB8301D1F850CFD1F86D
S315000012C038EF6B4CC1F858CF14F803A0C1F850EFB3
S315000012D000EB4301B1F9406FBAF1010FA1F8606F5D
S315000012E04FEA430BB6D1002B40F09E80B0F8762F24
S315000012F0012A40F2AB80AEEB0C0C1FFA8CFCACF171
S315000013002002742A00F2AA8090F8742F00EB4202A1
S31500001310A2F87ECF90F8742FB1F84C1FD0F8DCCF2E
S3150000132002F2B47E891B013220F81E1080F8742F59
S31500001330BCF1000F03D0A6EB0C060CEBE606C0F8DA
S31500001340DC6F7EE003F2CE3A03F5F46CA5E700EB22
S315000013504305B5F9D25F38F913C0AC45BFF64BAFBC
S3150000136003F5F36A00EB4A0BBBF904B0AB45BFF6D5
S3150000137042AF4FF0000100EB8E0E00EB4A0A012E41
S3150000138082F8D81FCEF80470AAF8045082F8799F24
S315000013903FF63CAF364982F8D89F00EB830E01F842
S315000013A00390DEF82C1FCEF8441F00EB4301B1F981
S315000013B034EFA1F84CEF002B7FF428AFD0F8E01FF4
S315000013C0F9B9C0F8E0EF21E70131C9B2AC4582F8BE
S315000013D07B1F7FF736AF00297FF459AF03F5F46C16
S315000013E05BE70131C9B282F8791F00EB4305B5F915
S315000013F0D25F38F913C065457FF7FDAE0029AFD13E
S3150000140040E7AEEB010E01EBEE01C0F8E01FFDE692
S315000014107FF429AF174BB0F8D21FB0F8D42F19803C
S315000014205A8003B0BDE8F08FB1F84C1F8E1B92F8BE
S31500001430741F8B440BF2B47B013120F81B6082F8D9
S31500001440741F4FF000010A4AD15403E7013292B2E9
S31500001450022AA0F8762F7FF45DAF4CE74FF0000428
S3150000146090F8742F02F2BC7200EB4202D48051E76E
S315000014706408002080080020084600222DE9F04F6D
S31500001480B44B91F87D1F5B8985B0CDE90222A0F8A7
S31500001490742F80F8D71F73B1DB08A2F1333203EB48
S315000014A04303A2FB0323C3F387030B2B00F2308114
S315000014B00C2380F87D3F438842889BB203F58C78E5
S315000014C01FFA88F8B8F5A07F24BF283B1FFA83F8D7
S315000014D090F9943FD21A92B202F21717BFB2B7F53B
S315000014E0A07F24BF293A97B207F12104A4B2B4F52C
S315000014F0A07F03D36FF48F717C18A4B200F58052DD
S31500001500002647F6FF7501921EE0002B11DB08EB63
S31500001510060100EB4101B1F9ACC9D0F8882FD0F82B
S315000015208C3F6244C0F8882FB1F92C2C1344C0F8C4
S315000015308C3FFFF727FE013690F87D3F282E80F876
S31500001540D73F71D090F9943F3F2B03DC01335BB258
S3150000155080F8943F402BD8D14FF0000E7146D0F85A
S31500001560903F00960133C0F8903F019B93F86FA11E
S3150000157001EB810C04EB8C1300EB810900EB4303B8
S31500001580D9F8882FB3F9AC39734EA3EBA213B34243
S31500001590B8BF3346AB42A8BF2B4608EB8C1B00EB0B
S315000015A04B0B07EB8C1CBBF9ACB900EB4C0CBCF934
S315000015B0ACC95A44A2EB0C02C9F8882F04AA02EB64
S315000015C0810C002B5CF8082C00EB41090EF1010E92
S315000015D0A9F8D23F5FFA8EF1B8BF5B42134451457A
S315000015E04CF8083CC4D90137631CBFB29BB2B7F5AF
S315000015F0A07F08BF0027B3F5A07F2CBF6FF49F72B2
S315000016001C4608F1010328BFA4189BB228BFA4B248
S31500001610B3F5A07F009E05D36FF49F7398441FFA1D
S3150000162088F886E7984684E7002290F8741FA0F8A9
S31500001630842F71B3B0F87E3F002B65D0012900F0EE
S315000016408380B0F8804F0CB90132D2B223449BB2EA
S315000016508C1A002CA0F8843F1BDDB0F8764F012CC5
S3150000166017D98A1A012592B2DB00B3FBF2F3B0F95F
S31500001670682FA94294B2A0F8E63F80F85A5003D0EA
S31500001680B0F86A2F224412B292FBF1F2A0F8642F4E
S31500001690C265019B93F86F61D6B190F8753F83B12F
S315000016A0B0F8762F012A0CD9B0F96C2F012B91B224
S315000016B003D0B0F86E2F0A4412B292FBF3F3A0F8EF
S315000016C0663F90F9943F402B28D005B0BDE8F08FD7
S315000016D090F9943F402BF8D190F8D05F029A05F527
S315000016E07A7340F8232090F8D63F052B9CBF013330
S315000016F080F8D63F6B1CDBB2062B08BF002380F8B0
S31500001700D03F05B0BDE8F08F012920D0012298E72F
S31500001710402B88BF402380F87D3FCCE600210B4656
S3150000172090F8D05F04AC03EB4302013104EB830372
S3150000173053F8084C05EB4202CBB202F57A729E4290
S3150000174040F82240EED2CEE7A0F8843F85E70A466D
S315000017507EE700BFAC1D00200080FFFF002A3ED0C0
S315000017608A423CD82DE9F04F00252C468E1AC6F346
S315000017704F0900F5805302EB090702F1FF3893F891
S315000017806FA1BFB219FA88F809F2562600F2AC4BDF
S31500001790B94528BF002319D24FF0000C04EB840E84
S315000017A006EB8E1100EB410108EB8E1E02390BEBA6
S315000017B04E0E31F9023F002BB8BF5B4271451CFA51
S315000017C083FCF6D14FEACC0CBCFBF2F306340135B0
S315000017D040F82430ECB2A245DAD2BDE8F08F70476B
S315000017E090F8B23E4BB9B0F8AC3EB3F5C87F34BF03
S315000017F00423082380F8B23E7047082B02D0042B3E
S3150000180016D07047B0F8AC3EB3F5C87FF9D20022C7
S3150000181090F81F3F80F81E2F0133DBB2042B80F8AF
S315000018201F3FEED9042380F81F2F80F8B23E704781
S31500001830B0F8AC3EB3F5DE7FE3D9002290F81E3F48
S3150000184080F81F2F0133DBB2042B80F81E3FD8D956
S31500001850082380F81E2F80F8B23ED2E72DE9F0412A
S3150000186000257823A84682B01A46CDE9003300F554
S31500001870805393F86F7100EB8506B3695100B3EBA3
S31500001880420F07D2C91AA2EB510202A901EB850148
S3150000189041F8082C002A22DB02FB02FE0F224FF43D
S315000018A0004C002403FB03F3A3EB0E0E0CEB4403E6
S315000018B09340734502F1FF329CBF6444AEEB030EC6
S315000018C0531C4FEA5C0CF1D10135EDB2BD42B46157
S315000018D00DD802AB03EB850353F8082CCBE702AA1D
S315000018E002EB85024FF0000E42F8088CD6E702B0F4
S315000018F0BDE8F081F8B514460D461146FFF7BCFD6C
S3150000190094F9943F402B7FD0D4F8E02F002A03DDD2
S31500001910D4F8DC3F002B08DBA36CB3F5027F0EDAAC
S315000019200023A4F8AC3E6365F8BD5B429B0193FBC4
S31500001930F2F3A4F8E43FA36CB3F5027FF0DBB4F84E
S31500001940A03406210133A4F8A03404F626722046FA
S31500001950FFF766FAB4F8262F20461146FFF7FEFE7B
S315000019600123B4F8262F04F2AC41FFF733F9614F97
S3150000197000230646B4F8262F2046FFF72BF9FB8DE9
S31500001980B3F58D6F56D2864228BF0646F6B2A4F846
S31500001990226F002E56D1B4F8241FB4F9A034102BB0
S315000019A060D004F580560022104600F0B9FF2946A3
S315000019B02046FFF753FFFEF765FD96F86F31002BC3
S315000019C064D12046FFF70AFA2046FFF709FF0122F5
S315000019D0618D104600F0A4FFFA8DD308520748BF68
S315000019E00133A4F8563096F86F31002B9CD00022B4
S315000019F00220218D00F094FFB7F8523003EB8303E9
S31500001A009B08A4F85430F8BD0020034604F5805620
S31500001A1096F86F1104EB830C083355F82320DCF895
S31500001A20883F013002EBA312C3B29942CCF8982F3B
S31500001A30F0D269E7864238BF0646F6B2A4F8226FAE
S31500001A40002EA8D0B4F8262FD200B2FBF6F35B0026
S31500001A509BB2B3F5946F3FD94FF494631946A4F83B
S31500001A60243F9AE797F8243004F5805687F82C30FF
S31500001A70142396F86F2187F83A30002A93D087F816
S31500001A805E3097F8483087F850308CE7D4ED056A19
S31500001A909FED197AF4EEC76AF1EE10FA91DDDFEDEB
S31500001AA0177A9FED176A26EE877A66EEA77A27EEF3
S31500001AB0267A77EE867A77EE877AB0EE677ABEEE8A
S31500001AC0EE7A17EE103A9AB2C3F3CC03642B0BD915
S31500001AD04FF44872228574E7FF2B98BF4FF480734A
S31500001AE01946A4F8243F58E73B2B98BF4FF4F072F1
S31500001AF0F0E700BFAC1D002000000000000040C25F
S31500001B000000EC4288B1094BA3FB0023DB08C3EBC2
S31500001B104332C3EB820200EB420080B2042888BF46
S31500001B200133642B28BF642318467047CDCCCCCC38
S31500001B308B69002B4CD0D1ED087AF5EEC07AF1EE28
S31500001B4010FA45DDC72B4FEAD3022AD9836CB3F5C9
S31500001B50FA5F26D39FED377AF4EEC77AF1EE10FAE4
S31500001B601FD49FED357AF4EEC77AF1EE10FA3ED522
S31500001B70DFED326A01F2A44393ED007A67EEA67AAE
S31500001B80B4EEE77AF1EE10FA40DD022201F580515B
S31500001B9091F86D3181F86E210133DBB281F86D3138
S31500001BA00EE001F5805191F86C310133DBB20A2B5E
S31500001BB081F86C3115D9012291F86D3181F86E21C9
S31500001BC0192B05D90122042380F8FE2081F86E31F5
S31500001BD07047B1F9A034062B26DD192A24D001F569
S31500001BE08051002381F86E3181F86D317047F5EE32
S31500001BF0006A01F2A44393ED007A67EEA67AB4EE8A
S31500001C00E77AF1EE10FAE4DD0322BFE7B1F9A0347A
S31500001C10062B09DD192A07D0002301F5805181F82A
S31500001C206D3181F86E31704701F5805191F86D3153
S31500001C30C6E700BF0AD7233DCDCCCC3D9A99193EC5
S31500001C4070B514460546126BA06B236B266B1B1AE8
S31500001C50A4F84030E06B636BB2F5027FA3EB0003A0
S31500001C60A4F84230636B82B0E3636388A264A66320
S31500001C70E38143DA0223224685F854302846FFF7EB
S31500001C8039FE94ED080AB5EEC00AF1EE10FA4FF0EF
S31500001C9000032ADD04F2A440FEF7D2FA1A4A04F53C
S31500001CA09563B2F8762083ED000A12B194F85A30A3
S31500001CB0BBB994F8593413B9312384F8593494F8DC
S31500001CC0443013B12046FEF7BBFD21462846D4F822
S31500001CD08831DB08A4F8B03E02B0BDE87040FFF7DB
S31500001CE027BF2046FEF7EEFEE3E7002204F2A440FB
S31500001CF006490360064B0A701A70CFE72046019129
S31500001D00FEF788FB0199B5E7AC1D00207C08002092
S31500001D1044080020012800D970470B4AC0EB001088
S31500001D2002EB001310B44FF0FF3483F8C41083F8AD
S31500001D30C5104FF6FF710001C3F8C840A3F8EC4088
S31500001D4011525DF8044B70470C1A00202DE9F04F34
S31500001D508B4C83B00091C0EB001104EB011191F89C
S31500001D60C5500101954200F0FB80012832D90E1AB8
S31500001D7004EB061E9EF8C420DEF8C8505700013F4B
S31500001D806B1CBC464FEA0616BFB21FFA82FA34D065
S31500001D900023AEF8EE30A35B013501330CEA0303F2
S31500001DA01BB26545CEF8C850A3534FDC002D4BD06F
S31500001DB0BEF9CC500A1A04EB0212A2F8EE50081A29
S31500001DC003EBC000009B04EB4004A4F8CC3003B046
S31500001DD0BDE8F08F4FF6FF760B1A570004EB03159C
S31500001DE0013F1B01BC4685F8C42085F8C520A5F82F
S31500001DF0EC60E652BFB21FFA82FA0123614D52FA35
S31500001E0003F62B7006D01E460133DBB252FA03FEF0
S31500001E10F9D12B700025A1EB000E4FEA0E1834F80D
S31500001E20083004EB0E1E01330CEA03031BB224F840
S31500001E300830DFF85481BCF1FF3F88F80060CEF827
S31500001E40C850AEF8EE5001D0009DB3E75FFA83FEAE
S31500001E5002EB0E090E1A4FEAC60809EA070758FAF6
S31500001E6087F7C64404EB4707B7F9CC9004EB4E0E50
S31500001E70009FBEF9CCB04FEAC70E36010EEBCB0879
S31500001E8003EB430706EB8707A8EB0918AEEBCB0E6F
S31500001E90274426444FEA68084FEA6E0E4FEAC909FE
S31500001EA0C7F80480C7F808E0C7F80C90B6F9EC70DC
S31500001EB001356745BCBF0137A6F8EC70B5EB820F5C
S31500001EC052DBA1EB000904EB0912B2F9EC204FEA50
S31500001ED00919002AB8BF002638DB02F1020B2A4A8C
S31500001EE09DB292F800800AEB050200261F46964630
S31500001EF0AB4405F1010A1FFA8BFB1FFA8AFA01911E
S31500001F000FFA8AF3AEEB0A0203EA0C0312B203EBF2
S31500001F10430302FB02F509EB8303234459680AF1E4
S31500001F20010A01FB05F545FA08F545FA08F53544B9
S31500001F309E681FFA8AFA02FB06F6DB6846FA08F67E
S31500001F402E44D3451E44DBD13B4601990D4A1278F7
S31500001F5016410A1AF61004EB0212A2F8EE602EE7FA
S31500001F60012B7FF404AF00E70A1A03EBC20504EB6A
S31500001F704505B5F8CC5004EB0212A2F8EE501EE768
S31500001F800C1A0020EC1B0020ED1B0020014B1870E2
S31500001F90704700BFEE1B002000B584464FF0080EC8
S31500001FA083B08DF804E09CF807E09CF808C0022393
S31500001FB04EEA0C0C152101AAA6208DF805C002F0E8
S31500001FC045FB03B05DF804FB10B54FF0000C8646E8
S31500001FD0222482B08DF804C08DF806409EF80AC00F
S31500001FE09EF80B409EF80CE04CEA040C4CEA0E0CF2
S31500001FF003232B2101AAA6208DF805C002F026FB9B
S3150000200002B010BD8446042300B5BCF810E0BCF84D
S3150000201012C083B08DF804E08DF806C04FEA1E2E7C
S315000020204FEA1C2C30210DEB0302A6208DF805E0AB
S315000020308DF807C002F00AFB03B05DF804FB00BF91
S31500002040844600B54FF0040E9CF814C083B00CFA19
S315000020500EFC4CF00A0C02232E210DEB0E02A620DC
S315000020608DF805E08DF804C002F0F0FA03B05DF8D3
S3150000207004FB00BF844600B583B09CF818E09CF8CA
S3150000208019C00223422101AAA6208DF804E08DF88A
S3150000209005C002F0DBFA03B05DF804FB30B5044678
S315000020A0002583B094F807C001AA01231621A620B3
S315000020B08DF804C002F0CAFA01AA03233821A6202B
S315000020C08DF804508DF805508DF8065002F0BEFAD2
S315000020D029466A460223A62002F080FAE279247A8B
S315000020E001231443162101AAA6208DF8044002F00C
S315000020F0ADFA03B030BD00BF4FF0800C152130B5EE
S31500002100044683B001AA0123A6200D468DF804C01B
S3150000211002F09CFA012142F2107057F0A7F9B4F8C8
S315000021200EC001AA8DF804C002234FEA1C2C172109
S31500002130A6208DF805C002F089FA4FF01A0C6A46FF
S3150000214002231921A6208DF800C08DF8015002F057
S315000021507DFA23881E211A0A8DF8043063888DF8CB
S3150000216005208DF806301A0A04238DF80720A620CC
S315000021700DEB030202F06AFA4FF0040C237D0DEB1F
S315000021800C0203FA0CF343F00A038DF804302E21F7
S315000021900223A6208DF805C002F058FA002301227A
S315000021A022212272E371A27A8DF80430E37A8DF847
S315000021B006101A43237B2B211A438DF8052003238F
S315000021C001AAA62002F042FA4FF0080C237AE07921
S315000021D0294618438DF80500022301AAA6208DF88A
S315000021E004C002F033FA03B030BD00BF70B58026DC
S315000021F082B0044601AA01231521A6208DF80460A9
S3150000220002F024FA012142F2107057F02FF94FF034
S31500002210000E0425222694F80AC084F80CE08DF8F6
S3150000222004E094F80BE00DEB05024CEA0E0C0323D8
S315000022302B21A6208DF805C08DF8066002F006FA5F
S315000022406A4601232C21A62002F0C8F9227D02232A
S31500002250AA4042F00A028DF804202E210DEB050259
S31500002260A6208DF8055002F0F1F9228A2B46110AB4
S315000022708DF80420628A8DF80510110A8DF8062063
S315000022808DF807100DEB05023021A62002F0DEF9CD
S31500002290A279217942F030028DF805200DEB050276
S315000022A01C2541F00A018DF8041002233521A620D1
S315000022B002F0CCF901AA01233721A6208DF804509B
S315000022C002F0C4F902230825217A01AA19438DF8E0
S315000022D00510E3711521A6208DF8045002F0B6F919
S315000022E002B070BD70B5802682B0044601AA0123F3
S315000022F01521A6208DF8046002F0A8F9012142F20A
S31500002300107057F0B3F84FF0000E0425222694F80B
S315000023100AC084F80CE08DF804E094F80BE00DEBAD
S3150000232005024CEA0E0C03232B21A6208DF805C0CE
S315000023308DF8066002F08AF96A4601232C21A62050
S3150000234002F04CF9227D0223AA4042F00A028DF8DF
S3150000235004202E210DEB0502A6208DF8055002F073
S3150000236075F9238A30211A0A8DF80430638A8DF8AC
S3150000237005201A0A8DF806308DF807202B460DEB3E
S315000023800502A62002F062F92279A37942F00A0238
S3150000239043F030038DF804208DF805300DEB05026F
S315000023A002233521A62002F051F94FF01C0C0DEB4B
S315000023B0050201233721A6208DF804C002F046F954
S315000023C04FF0080C237A15212B438DF805300DEBC1
S315000023D005020223E571A6208DF804C002F036F945
S315000023E002B070BD70B50C4606461546032338216B
S315000023F02246A62002F0F2F823787375627893429B
S315000024009CBF2033DBB2B2759B1AA178DBB25A08A7
S31500002410F1752B706A70A378AB7070BD034603EB41
S3150000242043030A46A6203B215BB202F0D7B800BFA1
S31500002430A0B1944600B502EB800E8A7848780B78F6
S31500002440120443EA002302F4403213434CF8043BDF
S31500002450E64501F10301F0D15DF804FB704700BFCA
S315000024602DE9F04140F2FF3440F2FF1582B0ADF89D
S315000024700650ADF8044023B904240123048680F8ED
S31500002480293000EB8206336A0FFA82FE002B4ED10A
S315000024904FF44033012433624FF4C01C0477002A02
S315000024A043D1048ABCFBF4FC41F27074A44538BFE6
S315000024B0A446BCF5B04F28BF4FF4B04C47F2305796
S315000024C000EB4E0EBEF82E50042D94BF64463C46DB
S315000024D0A3EB0408884531D9A3F5EA44303C8C4285
S315000024E084BF0021AEF82E10002A68D002AC418AC3
S315000024F004EB420434F8044C0831A142C0F2C8800F
S315000025008B4C03EBC301A14200F2CA80012A60D1C1
S31500002510B3F5404F5DD1037D022B5FD80021013317
S3150000252003754277C185018658E0448ABAE7B3F558
S31500002530404F40F0AF804FF4B04CBFE71C448C4294
S3150000254055D21F448F423CBF0024AEF82E40002ACD
S3150000255078D0047D002C00F0AB80012C00F0D980EF
S31500002560022C00F0DD80032C40F0A280B1F5F03F94
S3150000257040F29E8002220123027543770023C38521
S315000025800386BEF82E30042B2DD9012380F829307E
S3150000259090F82A30002B42D190F82A3063B990F88F
S315000025A028304BB190F8293033B10123202280F82E
S315000025B02A30428180F82B3002B0BDE8F08140F22B
S315000025C0F634018AA14259D903EBC301584B99420B
S315000025D066D84FF440410123316203770023AEF8F9
S315000025E02E30002A46D0002380F8293013E0A3EBD2
S315000025F00C048C4208D263448B4205D9042D05D8BD
S315000026000135ADB2AEF82E50042DEAD9002ABCD160
S31500002610012380F8283090F82A30002BBCD090F89F
S3150000262028301BB190F82930002BB5D100210122AA
S315000026304FF4805380F82A10438180F82B2002B093
S31500002640BDE8F08140F2FE31028A02EBC204B1EB32
S31500002650D40F05DB03EB83035B00B3F5FC1F50D3FC
S31500002660102A04D90123083A028280F82C30C38D3F
S31500002670042BCDD8002380F82830CCE7083101821E
S31500002680012380F82C30BEF82E50042DBED8A8E7C2
S315000026904182F5E74FEAC30C002A3FF402AF44E754
S315000026A00123244CA4FB0141C9083162037795E755
S315000026B0417F01293FF462AF00297FF462AF02A98E
S315000026C001EB420232F8041C428A02EBC204B1EB6F
S315000026D0D40F0DDD03EB83035B00B3F5FC1F07D2BC
S315000026E0154AA2FB03230122D3403362027748E74F
S315000026F0102A7FF646AF0123083A428280F82C3032
S315000027003FE701220C490277A1FB0313D340036282
S31500002710ADE7B1F5B43FCBD90023447703752DE778
S31500002720B1F5903FC4D901230375437726E700BF6F
S3150000273009800700CDCCCCCC398EE3380023437713
S31500002740C3850386704700BF0023064900EBC0001F
S3150000275001EB800280000B54137253819376D3836E
S3150000276013617047AC1D00202DE9F04F0646044664
S315000027702549DFF8CCA0DFF8CCB0DFF8CC90DFF845
S31500002780CC80224D224F83B0204B0191E81AC0B273
S31500002790FFF7DAFF01991F4B11F8010B243404F8F7
S315000027A00F0C1AF8010B04F8100C1BF8010B04F8B7
S315000027B00D0C19F8010B04F80E0C18F8010B04F8AF
S315000027C00C0C17F8010B04F80B0C15F8010B9D42C5
S315000027D004F8040CD8D1104A104B11481149726004
S315000027E0B362114A114BF064316711481149C6F8BA
S315000027F09420F360104A114B30637165B267C6F8D6
S315000028009C3003B0BDE8F08FA0DE050090DE050029
S3150000281098DE050095DE0500241C0020381C0020EB
S31500002820601C0020881C00209C1C0020B81C002076
S31500002830E01C0020141D0020481D0020701D0020F3
S31500002840B8DE0500A8DE0500B0DE0500C0DE050026
S3150000285010B5F9B1A0F1020C6246002301F1FF3E6A
S315000028605FFA8EFE00EB4E0E32F8024F9645234479
S31500002870FAD1B3FBF1F300249AB23CF8023F9B1A5B
S31500002880E64503FB0344F8D1B4FBF1F0FDF7E4FDA4
S3150000289080B210BD0846FDF7DFFD80B210BD00BF57
S315000028A02DE9F0431D4F00EBC00507EB8505EE68EB
S315000028B095F810C03188BCF1010F4FEAC008E983D2
S315000028C027DDB646012300243EF8022F8A4202D9AC
S315000028D01146EA83DCB201336345F5D18E46002307
S315000028E001254908A34208D036F8132005F101094D
S315000028F08A4284BF96445FFA89F501336345F1DB6A
S31500002900BEFBF5F189B2404407EB8007F983BDE8C9
S31500002910F0838E46F7D10024E1E700BFAC1D00200E
S315000029202DE9F843754D00EBC00705EB87077B895A
S3150000293004460E464FEAC008C3B1BB7E012B15D034
S31500002940002939D1FB7C7A7D0133DBB29A42FB74D4
S3150000295004BF0123BB76444405EB84052B7DAA7C8A
S315000029609A4224BF0123AB76BDE8F8832046FFF7E1
S31500002970EBFEDEB1012008EB040205EB8203596889
S31500002980B6B20E8015F822101872014405F822100E
S31500002990DA685E8116801A7CD97D5874914284BFAC
S315000029A012181A742046FFF77BFFD4E708EB0403DE
S315000029B005EB83035E81CEE7397CF8689146FFF725
S315000029C047FFB883B9F1000F00F083807B893A7E18
S315000029D003FB02F2B0EBD21F4FEAE213C0F288808B
S315000029E008EB040305EB83035A89B24264D2597E8D
S315000029F011FB00F093F8201083B201B95B08B21AFC
S31500002A009A426CD808EB040305EB8302917D15F816
S31500002A1023209B008A423CBF0132EA5408EB0402A1
S31500002A2005EB8200436890F808C0B6B223F81C6034
S31500002A3015F822E0BEF1000F5DD000220EF1FF373F
S31500002A40FFB203EB4707023B33F8020F9F420244F3
S31500002A50FAD1B2FBFEF292B200200CF1010C5FFA41
S31500002A608CFC08EB040305EB830361455A8158820D
S31500002A708CBF83F808C0187208EB040305EB8303C8
S31500002A801A7CD97D08EB0407914205EB870784BFC2
S31500002A9001321A747A7CFB68204623F81260FFF72D
S31500002AA0FFFE7B7CFA7D0133DBB29A427B743FF6F4
S31500002AB052AF00237B744EE7597E921B01FB00F058
S31500002AC0C0F34F0082429DD99A7CB6B201329A7405
S31500002AD0D2E73B7E98423CBF1846BB8380E708EBB3
S31500002AE0040305EB83039A7CB6B201329A74C3E7FA
S31500002AF098B2B88374E77246AEE700BFAC1D0020FB
S31500002B00002130B50446A7B0922201A8009158F0E2
S31500002B10DCFA374B374A68461B681268364958F064
S31500002B20A9FC684600F036FE54B1012C3BD0032CBC
S31500002B3024D0022C51D0684600F02CFE27B030BDC0
S31500002B406C462E4D0FCD0FC40FCD0FC42B686846B3
S31500002B50237000F01FFEEC46294C0FCCACE80F00AA
S31500002B600FCCACE80F000FCCACE80F00236868462A
S31500002B70ACF8003000F00EFE27B030BD6C46214D9B
S31500002B800FCD0FC495E80F0084E80F00684600F0EB
S31500002B9001FE4B221C49684658F070FA684600F060
S31500002BA0F9FD27B030BD6C46184D0FCD0FC40FCDC3
S31500002BB00FC42B68124D23706C46684600F0EAFD80
S31500002BC00FCD0FC40FCD0FC40FCD0FC42B686846B1
S31500002BD0238000F0DFFD27B030BD6C460C4D0FCDD5
S31500002BE00FC40FCD0FC42B6868462360CFE700BF24
S31500002BF02800060024000600C8DE0500D0DE050019
S31500002C00F4DE05004CDF05006CDF050028DF05005B
S31500002C10B8DF050000232DE9F041754A754E764C64
S31500002C2082B012683168754823808DF8073055F0F8
S31500002C30F9F9002840F08380714B1F78002F6AD184
S31500002C40402231686D480DF1070355F08BFA0446B2
S31500002C50002840F086809DF807506DB3012D00F0E6
S31500002C60A780022D00F08E80DFF8EC8198F8003006
S31500002C70002B34D0634B32681B6863495F4855F0BC
S31500002C806BF90546002834D188F800002FB15F4A59
S31500002C901378002BFCD0002313704FF40062002140
S31500002CA05B4858F012FA00225A4B1A8000F03EFE9A
S31500002CB0204602B0BDE8F0815749584804F0A4FC0C
S31500002CC0574800F067FDDFF89081564804F09CFCF9
S31500002CD0534800F05FFD98F80030002BCAD1494BED
S31500002CE032681B684A49454855F036F905460028BA
S31500002CF0CCD02C4648494C4804F086FC484800F0A5
S31500002D0049FD4A4804F080FC454800F043FD204652
S31500002D1002B0BDE8F0814049404804F075FC4048E7
S31500002D2000F038FD424804F06FFC3D4800F032FDEB
S31500002D30404A1378002BFCD00023137080E704462A
S31500002D403549364804F060FC354800F023FD3A4822
S31500002D5004F05AFC324800F01DFD204602B0BDE8E2
S31500002D60F0812D49304804F04FFC2D4800F012FD4B
S31500002D70324804F049FC2A4800F00CFD204602B017
S31500002D80BDE8F0812E4D2F4A01E0137813B92B7858
S31500002D90002BFAD02B7803F0FF08C3B92A4804F0B9
S31500002DA033FC1F4800F0F6FC264B83F800805BE7F7
S31500002DB019491D4804F028FC194800F0EBFC23488B
S31500002DC004F022FC164800F0E5FC2C4670E720498A
S31500002DD0154804F019FC124800F0DCFC1D4804F00C
S31500002DE013FC0F4800F0D6FC002303242B705FE78A
S31500002DF0C0270020BC260020601E0020846C012015
S31500002E0000100600C42700206C2600206B1E002040
S31500002E1078880020647800201CE90500DCDF0500C6
S31500002E20B0C9002088E0050038E005004CE1050047
S31500002E3024E00500691E0020F8DF050054E00500C7
S31500002E406A1E0020681E002038E10500A4E0050087
S31500002E5004E90500F0E00500C82F002030B4802406
S31500002E604FF0000C0222184B184D19491D60194BE2
S31500002E70A1F800C01C60184B1A6040B90122174B1C
S31500002E805A72012230BC164B1A70FFF7C3BE0128D6
S31500002E9008D002280ED00328F3D101220F4B83F865
S31500002EA03920EEE7012230BC0C4B58760C4B1A70D9
S31500002EB0FFF7B0BE012230BC084B83F8292001225F
S31500002EC0074B1A70FFF7A6BEBC260020401F00085D
S31500002ED0601E0020C4270020C02700206C2600208A
S31500002EE0C82F00202DE9F84F4FF4C061022380223D
S31500002EF05C4F0025396087F828305B4987F8383001
S31500002F0087F84830202379644FF4006182463A629C
S31500002F1018203A633A6401223B76544B544CDFF84E
S31500002F2090B139617B60534903F560637B628033FE
S31500002F302580DFF88081504DDFF87C913872796109
S31500002F407B638BF8002012E04946284658F02FFB99
S31500002F50044698B933782BB10D21284658F0EDFA7E
S31500002F6000285BD14FF47A71012056F07FFA414672
S31500002F70284658F01CFB414E0028E5D00023404966
S31500002F8040488BF8003004F03FFB3F4800F002FC5D
S31500002F903E4804F039FB3C4800F0FCFBBAF1000F58
S31500002FA025D118204FF4C062394B30491960394990
S31500002FB0394B086030481A6058F0DEFAF860FFF7BF
S31500002FC029FE044668B95046FFF748FF044640B953
S31500002FD0324800F0DFFB324800F0DCFB2046BDE85B
S31500002FE0F88F304800F0D6FB2046BDE8F88FBAF1DE
S31500002FF0010F19D0BAF1030F25D0BAF1020FDED1B5
S315000030008022234B28491C481960234B21491A600A
S31500003010C1F800A058F0B0FAF862D0E7184919488C
S315000030208BF800403470AEE720204FF40062184B56
S31500003030104919601749184B08600F481A6058F074
S315000030409BFAF861BBE702208022114B17491960F1
S315000030501049114B086008481A6058F08DFAF86359
S31500003060ADE700BF6C260020401F00084010000896
S31500003070601E0020401600087888002079980020FD
S3150000308030E90500DCDF0500B0C90020B4E1050029
S31500003090BC260020C0270020C427002008E2050027
S315000030A03CE20500D8E10500401E0008C01E0008ED
S315000030B07088002078E1050094E105002DE9F047CD
S315000030C00025A8B092222946074603A8029557F084
S315000030D0FCFF02235F4C4FF4C06184F8283084F86B
S315000030E0383084F84830182323724FF40063802266
S315000030F023612023216058492262616001F5C06185
S31500003100616101F500612263226423766162534B9B
S315000031108031534A616380311B681268616402A87A
S31500003120504958F0A7F902A800F034FBDFF854E143
S315000031300DF1080CBEE80F00ACE80F00DEF8003019
S3150000314002A8CCF80030484EDFF83C81DFF83C910D
S3150000315000F020FBEBB28DB1012B3BD0022B25D129
S3150000316094F82930002B45D10135042DF2D13F4882
S3150000317000F010FB002028B0BDE8F087637A002B32
S31500003180F2D0D4E900A13046524657F077FF3046D8
S31500003190374958F00CFA28B1304658F0EDF9E36893
S315000031A0984243D0334800F0F5FADDE7032DDBD132
S315000031B094F83930002BDAD0D4E90C212A4857F09C
S315000031C05DFF002FD3D02C4800F0E4FA264800F02B
S315000031D0E1FACCE7637E002BC6D0226930466169EE
S315000031E0019257F04BFF019AAFB90021304657F0D4
S315000031F06CFFB9E7D4E90821304657F03FFF404657
S3150000320000F0C8FA304600F0C5FA00213046226ABE
S3150000321057F05BFFA8E7484600F0BCFA304600F0DE
S31500003220B9FA164800F0B6FA2269DEE72FB9524617
S315000032300021304657F049FF96E7114800F0AAFAF8
S31500003240304600F0A7FA0D4800F0A4FAD4F800A022
S31500003250EDE700BF6C26002040100008280006009D
S3150000326024000600C8DE0500CC2F00203CE2050045
S3150000327078E10500B0E2050078E3050080EC050082
S315000032807CE2050068E2050040E3050008E305006E
S3150000329008B550220249034857F0F0FE002008BD49
S315000032A0401F00086C26002038B5FFF7F1FF08BB69
S315000032B018240222134B80211C72134C83F82820F9
S315000032C05C604FF4006483F8382083F8482020229D
S315000032D04FF4C0651962196319640C491A7659646A
S315000032E0A1F5106159612144596280311D6059630D
S315000032F01C6138BD4FF4E571054B064A064856F089
S31500003300ADF800BF6C26002040100008401F0008E2
S31500003310ACE3050048E90500C0E3050030B5214BE4
S31500003320214A1B681268214983B02148204C214D4F
S3150000333058F0A0F81E4800F02DFA0FCD0FC4204615
S315000033402B6840F8103900F025FA1B4A537A23BB44
S315000033501A490B68507E10B1D06903440B6092F88D
S31500003360290010B1D06A03440B6092F8390010B1FD
S31500003370D26B13440B60C3F578644FF4786210493E
S3150000338000940B4858F076F8094800F003FA0D4807
S3150000339003B0BDE8304000F0FDB9D36807490B60C3
S315000033A0D8E700BF2800060024000600C8DE050096
S315000033B0CC370020D8E305006C260020641E0020D0
S315000033C0ECE305003CE2050070B50026A6B09222AB
S315000033D0314601A8009657F078FE784B784A1B686C
S315000033E012687849684658F045F8684600F0D2F900
S315000033F0EC46754C754D0FCCACE80F000FCCACE825
S315000034000F0094E80700ACE803002CF8022B120C1E
S3150000341068468CF8002000F0BDF96B7A002B43D08B
S31500003420D5E900216A4857F029FE6A49684858F0EC
S31500003430BEF828B1664858F09FF8EB68984207D066
S31500003440654800F0A7F9002312206B7226B070BD04
S3150000345002465F49614857F011FE614800F09AF94B
S315000034605B4858F089F831460246594857F02DFE18
S315000034706B7E002B00F08380D5E90421544857F079
S31500003480FDFD5849524858F092F828B1504858F076
S3150000349073F8EB6998420DD0534800F07BF900238E
S315000034A012206B7626B070BD504800F073F91220DA
S315000034B026B070BD024646494D4857F0DFFD4D48DF
S315000034C000F068F9424858F057F83146024640483D
S315000034D057F0FBFD95F82930002B61D0D5E908217E
S315000034E03B4857F0CBFD3A4858F046F8EB6A02469F
S315000034F098424ED1404C3649204657F0BFFD2046F3
S3150000350058F03AF8013823560D2B08BF26543B488D
S3150000351000F040F92E4858F02FF8002102462C48BA
S3150000352057F0D3FD95F8393073B3D5E90C21284807
S3150000353057F0A4FD264858F01FF8EB6B0246984258
S3150000354033D12F4C2249204657F098FD204658F09B
S3150000355013F8013823560D2B04BF002323542948A2
S3150000356000F018F9284800F015F9194858F004F841
S3150000357000210246164857F0A8FD002066E72348BA
S3150000358000F008F9122061E7214800F003F9122043
S315000035905CE7204800F0FEF8122085F8296055E720
S315000035A01D4800F0F7F8122050E71C4800F0F2F82A
S315000035B00023122085F8393048E700BF28000600AE
S315000035C024000600C8DE050044E405006C26002041
S315000035D0CC2F002078E10500B0E205006C1E00202B
S315000035E070E4050094E1050048E50500C0E4050027
S315000035F0C8270020F8E4050040270020D8E505008C
S31500003600C0260020C0E6050080EC0500A0E5050008
S315000036106CE705002CE6050084E6050014E70500C6
S31500003620002100B5A7B0922201A8009157F04DFDE8
S31500003630194B1A4A1B6812681949684657F01AFF4F
S31500003640684600F0A7F86B46164A07CA03C34FEA56
S31500003650124C23F8022B83F800C0684600F09AF853
S31500003660114800F097F8114800F094F8104800F05F
S3150000367091F8104800F08EF80F4800F08BF80F48CC
S3150000368000F088F80E4800F085F80E4800F082F841
S3150000369027B05DF804FB00BF2800060024000600E2
S315000036A0C8DE0500A8E70500B4E70500E4E7050065
S315000036B010E805003CE805006CE8050098E8050000
S315000036C0C8E805003CE205000378032B0AD0022B6C
S315000036D004D05BB90122084B1A7070470122074BD0
S315000036E01A7070470122064B1A707047012B04BFEF
S315000036F0044A1370704700BF691E0020681E002030
S315000037006A1E00206B1E0020002310B50D4C82B0EF
S315000037100190236057F030FF019902460A482AF0CB
S3150000372001FC20B108E00121084655F09FFE236800
S31500003730002BF8D002B010BDC421044B044A054842
S3150000374055F08CFE74880020546C0120ACE3050013
S31500003750B4EA050034EA0500002310B50B4C82B02C
S3150000376001220B480DF107018DF8073023602AF07E
S31500003770BFFB236833B90121084655F077FE23685D
S31500003780002BF8D09DF9070002B010BD6C88002010
S31500003790546C01200FB42DE9F04F0A219DB03E482C
S315000037A0269E07F081FF20B11DB0BDE8F04F04B0A2
S315000037B0704796F9003027AA0092002B6AD005467A
S315000037C037464FF0FF3181460446DFF8D08014E0DB
S315000037D05D2B07D1002903DB621A131F052B24D9A1
S315000037E04FF0FF3197F9003008F8053001352DB25A
S315000037F0013424B23357371923B15B2BE8D1A946DC
S315000038002146EFE745440023009A24492B702448BB
S3150000381057F0FAFE2248FFF777FF1F4807F06EFFC2
S315000038201DB0BDE8F04F04B070474FF0000A02F13A
S31500003830010B5A46314401A857F0A6FE0BF170035E
S315000038400DEB03020DF1100B02F86CAC584660222A
S31500003850144957F013FC04E00AF1020ABAF1180FF2
S31500003860BED05BF82A1001A857F074FE0028F3D1E9
S315000038701CAB03EB8A0353F85C5C08EB0900294692
S3150000388057F072FE284657F077FE48444FF0FF3156
S3150000389005B2ADE7014DB6E7F474012064380020A7
S315000038A06458002054EA05000379022B04D0042B47
S315000038B009D0012B04D070470122144B1A607047BF
S315000038C0134A1360704730B4124C2368B3F5805F17
S315000038D00CD2114A5278022A0AD81049826809780D
S315000038E00F480129C25409D00133236030BC704708
S315000038F00B4980689A1C58522260F7E709480A4D1E
S3150000390001886A5401310180EEE700BF7488002007
S315000039106C88002068780020CC0F06007088002094
S315000039206C78002064780020788800204FF480525C
S3150000393008B50021034857F0C8FB0022024B1A6065
S3150000394008BD00BF6C780020687800202DE9F84F8C
S31500003950FFF7AAFC002840F022814FF0FF34A24A6C
S31500003960A24BD2F800B0D3F800A0DFF8C892A04D61
S31500003970DFF8C4829F4FA04E524659464046FFF795
S3150000398009FFDFF898C2DFF8B4E2BEE80F00ACE842
S315000039900F00BEE80F00ACE80F00BEE80F00ACE871
S315000039A00F006046DEF8003000F83039FFF7F2FE0F
S315000039B0384699F90010FFF7EDFE61213046FFF712
S315000039C0E9FE62218D48FFF7E5FE63218C48FFF78B
S315000039D0E1FE64218B48FFF7DDFE65218A48FFF78B
S315000039E0D9FE66218948FFF7D5FE67218848FFF78B
S315000039F0D1FE68218748FFF7CDFE8748FFF7CAFE4C
S31500003A002B786BB1202C10D0613CE3B2072B5AD82F
S31500003A10072C58D8DFE804F09B8CB5A47A6E650CA9
S31500003A20FFF79AFE0446202CEED10020BDE8F88F61
S31500003A3000232B70FFF7F4FDFFF78EFE2028FBD145
S31500003A40524659464046FFF7A5FE744CDFF8ECC1D6
S31500003A50BCE80F000FC4BCE80F000FC4BCE80F00A1
S31500003A600FC42046DCF800C000F830C9FFF792FE0C
S31500003A70384699F90010FFF78DFE61213046FFF7B1
S31500003A8089FE62215D48FFF785FE63215C48FFF7EA
S31500003A9081FE64215B48FFF77DFE65215A48FFF7EA
S31500003AA079FE66215948FFF775FE67215848FFF7EA
S31500003AB071FE68215748FFF76DFE5748FFF76AFE0B
S31500003AC02B78002BACD05648FFF764FEFFF744FE78
S31500003AD0A0F16103DBB2072B0446F7D801232B7054
S31500003AE04AE700232B70FFF76FFCFFF735FE20280F
S31500003AF0FBD1A5E7002301202B70FFF7DFFA002892
S31500003B006BD1FFF729FE2028FBD199E7002101227E
S31500003B10444B032029701A70FEF7F2FF0320FFF7CB
S31500003B20E1F9002853D1FFF717FE2028FBD187E7DC
S31500003B30002420462C70FEF7E3FF2046FFF7D2F95B
S31500003B4000283ED1FFF708FE2028FBD178E70023A6
S31500003B502B70FFF7E3FBFFF7FFFD2028FBD16FE794
S31500003B60002101222F4B022029701A70FEF7C8FF90
S31500003B700220FFF7B7F9F0B9FFF7EEFD2028FBD1D9
S31500003B805EE7002301202B70FEF7BAFF0120FFF746
S31500003B90A9F950B9FFF7E0FD2028FBD150E74221F3
S31500003BA0214B224A224855F059FC84211E4B1F4ABC
S31500003BB01F4855F053FC9F211B4B1C4A1C4855F0CF
S31500003BC04DFC7521184B194A194855F047FCAF2191
S31500003BD0154B164A164855F041FC8F21124B134AD5
S31500003BE0134855F03BFC00BF2400060028000600E1
S31500003BF0789800201CEB050030EB05003CEB050037
S31500003C0058EB050074EB050098EB0500B4EB0500D6
S31500003C10C8EB0500F8EB05003CE205007C980020A7
S31500003C2004EC050079980020ACE3050038EC0500AB
S31500003C30C4EA05001C9D0020C8DE0500E8EA050070
S31500003C4030B500241F4B204A85B01B6812681F49F7
S31500003C501F48039457F00EFC1D48FFF79BFD1D4BB4
S31500003C601D4993F900201A4857F004FC1848FFF73D
S31500003C7091FD03A855F0EAFB9DF80D409DF80E3026
S31500003C809DF80F20154900941148114C144D57F01A
S31500003C90F1FB0F48FFF77EFD0FCD0FC40FCD0FC40C
S31500003CA095E8070003C4204620F82829FFF772FD8F
S31500003CB0FFF752FD20F0200040B20028F8D105B0F1
S31500003CC030BD00BF2800060024000600C8DE05003F
S31500003CD0809C00201C9D002048EC050064EC05003B
S31500003CE03CE2050030B5244B244A83B01B681268B9
S31500003CF02349244857F0BEFB2248FFF74BFD224BD1
S31500003D00224993F900201F481E4C214D57F0B2FB63
S31500003D101C48FFF73FFD0FCD0FC40FCD0FC495E82C
S31500003D20030044F8040B204600F82419FFF732FD7F
S31500003D3096220021A4F1240057F0C7F91549D1F8BD
S31500003D409C00D1E924230190D1F8980012490090F3
S31500003D50A4F1240057F08EFBA4F12400FFF71AFD0E
S31500003D600E48FFF717FDFFF7F7FC20F0200040B2E2
S31500003D700028F8D103B030BD280006002400060054
S31500003D80C8DE0500809C00201C9D002070EC05000C
S31500003D9084EC050000810001ACEC05003CE2050066
S31500003DA010B5164B164A82B01B681268154916489C
S31500003DB057F060FB1448FFF7EDFC144B144993F9D8
S31500003DC000201148134C57F055FB0F48FFF7E2FC53
S31500003DD0114B124A12490C48009457F04BFB0A4803
S31500003DE0FFF7D8FC0F48FFF7D5FCFFF7B5FC20F02E
S31500003DF0200040B20028F8D102B010BD280006000D
S31500003E0024000600C8DE0500809C00201C9D0020C2
S31500003E10C4EC050048ED0500D4EC05000CED0500EA
S31500003E2038ED05003CE2050038B5214A214B126801
S31500003E301B682149214857F01DFB2048FFF7AAFCC3
S31500003E401F4B204993F900201C4857F013FBFFF73E
S31500003E502BFAFFF7B9FAF8B11B48FFF79BFC1B4892
S31500003E60FFF798FC1A4D4FF0FF342B7843B14FF40F
S31500003E707A71084655F0FAFA202CF6D1002038BDA2
S31500003E80FFF76AFC10F0DF0F0446F7D04FF47A71A3
S31500003E90084655F0EBFAE8E701230D4D0D482B7067
S31500003EA0FFF778FC0C4807F0ADFE0C4B1860DAE71C
S31500003EB02400060028000600C8DE0500809C0020BD
S31500003EC01C9D002064ED050084ED05003CE2050024
S31500003ED07C9C0020ECED050094730120189D0020C9
S31500003EE03A4B3B4A2DE9F0411B68126839493A487A
S31500003EF0394C3A4E57F0BEFA3748FFF74BFC0FCE17
S31500003F000FC40FCE0FC40FCE0FC496E8030044F8BB
S31500003F10040B24F8021B20460025090C00F836196C
S31500003F20FFF738FC2E4F2A46DFF8C0802D4B363C73
S31500003F3001E057F83530013241462046013557F049
S31500003F4099FA6DB22046FFF725FC07EBC5035B68BF
S31500003F502A46002BEDD12448FFF71CFCDFF89080A1
S31500003F60FFF7FAFB90B1C4B2A4F1300676B2002E88
S31500003F7088F8006013DDAE421CDD4FF47A71C8206C
S31500003F8055F074FAFFF7E8FB0028ECD14FF47A718C
S31500003F90C82055F06BFA6FF02F00BDE8F0814FF4A2
S31500003FA07A71C82055F062FA002ED9D16FF02F0031
S31500003FB0BDE8F081A4F131035BB207EBC3077B6870
S31500003FC09847A4F1600040B2BDE8F08128000600E1
S31500003FD024000600C8DE0500209D00203CEE0500FA
S31500003FE0B4EE05002CEE050080EC050074EE05002D
S31500003FF01C9D00202DE9F843D0E90295A9EB0508A0
S3150000400090450446164607D940682844354457F07B
S3150000401035F8E560BDE8F8830F4640684246284417
S315000040203544A5EB090557F029F82A46606807EBE1
S31500004030080157F023F8E560BDE8F8832DE9F84359
S315000040404FF00009064617468846D0E9021533693F
S315000040504C1B9D4203F1FF3224BF03F1FF3252187D
S31500004060BC4228BF3C46521B944228BF1446706887
S3150000407041462844224657F001F8B1682544A94232
S3150000408008BF00253F1BA144A044F560DFD1484688
S31500004090BDE8F883042100224FF0200C30B44FF421
S315000040A0006540241048114B0068C3E90411C3F8A9
S315000040B007000F480F49D8670F489A625A62DA62BA
S315000040C0C3F88820C3F88420C3F88C200B4A986173
S315000040D0986783F806C003C9186099801D62C3F803
S315000040E08040DA6130BC7047F0EE050020A1002068
S315000040F0F8A10020F4EE0500E4EE050038A2002049
S3150000410038B5204B00EB400403EBC40EDEF82C4020
S31500004110013000EB4000012C8C46154603EBC00035
S3150000412005D0022C29D0ACB10024204638BDDEF8DB
S315000041302830DEF8242093429CBFDEF820401B196D
S31500004140013B9C1AAC4228BF2C462246FFF752FF81
S31500004150204638BDDEF82830DEF8242093429CBF86
S31500004160DEF820105B18013B9B1A9D42DDD82A46DB
S315000041706146FFF73FFF2C46D7E7BDE83840FFF71B
S315000041805DBF00BF20A1002030B50D4B0C4693F952
S31500004190003083B063B1EFF311854FF0200181F356
S315000041A011882146FFF7ACFF85F3118803B030BDB7
S315000041B0CDE90002FFF76EFFDDE90002EBE700BF85
S315000041C020A10020D0E9012310B50446581C9042D6
S315000041D007D82268D1540346E16862680131C4E910
S315000041E002019A4200D010BD21682069FFF7CCFF7A
S315000041F0A368984215BF4FF0FF330023E360A36026
S3150000420010BD00BF2DE9F84F91420F46DDE90A9433
S31500004210154683461E4660D30B464FF00108B3FB96
S31500004220F5F39D4208F10108F9D9B04538BFB0460B
S3150000423014F0010A02D1B9F1000F35D1DBF80C30C8
S31500004240002B2FDB012402E0013E05FB04F4012EC6
S31500004250FAD8B7FBF4F39D42F7D9214E06E0AC42FB
S31500004260B4FBF5F30CD31C46B7FBF3F3F1565846F3
S3150000427004FB1377FFF7A6FFDBF80C30002BEEDA12
S31500004280BAF1000F0ED0B9F1000F0BD0C84509F1F5
S31500004290FF3907D220215846FFF794FFDBF80C3090
S315000042A0002BF0DABDE8F88FA30711D420240CE028
S315000042B021465846FFF786FFDBF80C3009F1FF3937
S315000042C0002BEFDBB9F1000FBCD0C845F0D3B5E742
S315000042D0002E0CBF30242024F7E74FF00108A4E796
S315000042E0FCEE05002DE9F04FCDB00CAB4FF0000A07
S315000042F007934FF4807383460C461746CDE909AA07
S31500004300DFF8B49208930B9005E007A8FFF75AFF71
S315000043100A98002872DB14F9011B002971D025299F
S31500004320F3D10026254614F9013BA3F123020D2AF9
S3150000433008D8DFE802F04907070707070707460717
S315000043404C070743A3F13002D2B2092A4FF000040A
S315000043500BD804EB840403EB440415F9013F303C0D
S31500004360A3F13002D2B2092AF3D92E2B00F0CC8069
S31500004370002395F9001001E015F9011F21F0040250
S31500004380682AF9D0252900F0D7805839CAB2202AE0
S315000043902FD820292DD8DFE801F03F2C2C2C2C2CEF
S315000043A02C2C2C2C2CAD5C2C2C2C2C2C2C2C2C2C96
S315000043B02C2C4E2C2C1D2C4B2C2C3F0046F0020690
S315000043C0B0E746F00406ADE746F00806AAE746F071
S315000043D00106A7E73B681A1D3A601C6805E007A8B6
S315000043E0FFF7F0FE0A98002804DB14F9011B0029E8
S315000043F0F5D10A98002805F101048CDA4DB0BDE824
S31500004400F08F0A980028F9DD099A002A40F0998071
S3150000441010444DB0BDE8F08F1022386801680430B2
S31500004420CDE90046386007A8FFF7ECFE0A98E1E7F9
S315000044300A223868F2E70823386810220168043037
S31500004440386007A8CDF804A00093FFF7DBFE0A98B2
S31500004450D0E73A680120D2F8008004323A6088EA50
S31500004460E872A2EBE872092A08DD1146A9FB02C22E
S31500004470632900F101004FEAD202F6DC98420246B7
S3150000448038BF1A4603928CB3B8F1000F61DB72078E
S315000044905FD4B00700D54BB3F10727D434B30495E6
S315000044A02546039C0593AC421DD207A82021FFF7A1
S315000044B089FE0A98013D00287CDB002DF3D12C46AD
S315000044C0DDE90453B8F1000F45DB720750D406F05E
S315000044D00302022A53D041460A22CDE9004607A824
S315000044E0FFF790FE85E72C46DDE904530A9800287D
S315000044F0E8DA7FE73B6807A81A1D93F900103A60CF
S31500004500FFF760FE0A9875E795F901100135A1F1EC
S315000045103003DBB2092B4FF000033FF62FAF03EB5E
S31500004520830301EB430315F9011F303BA1F1300270
S31500004530D2B2092AF3D921E707A8FFF743FE0A9862
S3150000454058E758460CA9FFF71FFEDDE9092010447D
S315000045505FE7013C9DE72D2107A80493FFF732FE94
S31500004560049BC8F100080A980028FFF643AFAEE79F
S315000045702B2107A80493FFF725FE049BF3E7002BE6
S31500004580A9D17CB10493039BA3420DD207A8302185
S31500004590FFF718FE0A98013C0028FFF62BAF002C07
S315000045A0F1D1049B002496E70A98049B0028FFF6A5
S315000045B021AF90E7049D1DE7CDCCCCCC0EB400B561
S315000045C082B003AB53F8041B01AA0193FFF78AFEDE
S315000045D002B05DF804EB03B0704700BF002030B5B1
S315000045E0012487B00492174A174D8DF81530936849
S315000045F028700DF107008DF8144003901C6906AB76
S3150000460010688DF8071013E90E00A0472B7898B9AB
S3150000461040F2E73433B1002318462B7007B030BDA3
S31500004620002CF8D00121084654F020FF2B78013CDD
S31500004630A4B2002BF4D0EEE7022B0CBF122040B23E
S3150000464007B030BD401106006AAA002070B5184EAA
S315000046508C4630461C46114600F801CB1A4656F0E9
S315000046600DFD4FF0000C134B621C9C68124D314639
S315000046701868E36885F800C0984746B22B7896B963
S3150000468040F2E7342BB1002330462B7070BD002C6E
S31500004690F9D00121084654F0E9FE2B78013CA4B27A
S315000046A0002BF4D0EFE7022B08BF1226304670BD70
S315000046B038AA0020401106006AAA00200279034B9E
S315000046C0002A0CBF012202221A7070476AAA002033
S315000046D02DE9F04F404CDFB00DAE0DF1260B0DF17C
S315000046E0300A09ADA4F10208DFF8109144E00B9AF4
S315000046F0298802F089FF3948FFF74CF8384802F05C
S3150000470083FF3648FFF746F8079B2A880B993248FD
S31500004710A36023606360C4F80B3056F035FF0623B0
S315000047204146FF222F4888F8003007F085F83168A7
S3150000473022A825F09BF8002836D14FF4807239461E
S315000047400EA825F0FFF8002837D10EA825F048F965
S3150000475003463046079319F033F94FF0FF3CBBF898
S3150000476000300097079FDAF80020C8214846CDE9B7
S31500004770017C24F0C9FF48BB4FF0000C0BAB484648
S31500004780CDE902B6CDE9005A0DF122020AA9CDF80B
S3150000479010C024F039FF0346134F14480793002B2B
S315000047A0A5D05FB0BDE8F08F114856F01DFD30462C
S315000047B019F006F95FB0BDE8F08F0E4856F014FD0B
S315000047C0304619F0FDF85FB0BDE8F08F01460A48A3
S315000047D056F084FC88E700BF9EC90020B0C90020BF
S315000047E080EC0500DC76012070AA00200CEF0500A5
S315000047F024EF050048EF050074EF050050CF0020B8
S3150000480000B50A4C0A4D83B04FF0FF312346012212
S315000048102846009106F0A2FE2368DB0601D5FFF7C5
S3150000482057FF012006F0CEF9EEE700BF6CAA002084
S315000048305C31012010B50D490D4853F0AFFA00B9AF
S3150000484010BD04460B490C4802F0DEFE0B48FEF78D
S31500004850A1FF0B4802F0D8FE0848FEF79BFF224650
S3150000486008490020FFF7AAFE00BE10BD0010060092
S31500004870846C012010F0050038E00500B0C9002066
S31500004880A4EF0500C0EF050010B502F0CFFEB8B1E9
S3150000489004461449144802F0B7FE1448FEF77AFF9E
S315000048A0134802F0B1FE1148FEF774FF2246114983
S315000048B00020FFF783FE00BEBDE81040FFF7BABF39
S315000048C008490D4802F0A0FE0848FEF763FF0B48B2
S315000048D002F09AFE0548FEF75DFFBDE81040FFF7BF
S315000048E0A9BF00BF1CF0050038E00500B0C90020D4
S315000048F0E0EF0500C0EF0500DCDF0500F8EF05007E
S3150000490008B5FFF7C1FFFFF7EBFA0A2006F05AF9E0
S31500004910F9E700BF38B50D46044641F2883200215A
S31500004920284656F0D2FB4FF480520021164856F026
S31500004930CCFB002304F1FF3C01E0322B21D01CF913
S31500004940012F01330D2AF8D10021013B04F59C52B9
S315000049500D482344073213F901CFBCF12D0F0AD0BD
S31500004960BCF10D0F05D0BCF10A0F1CBF00F801C049
S3150000497001319A42EFD12A46BDE83840024802F09A
S3150000498033BD3323E0E700BF70AB002008B506480F
S3150000499052F0DAFE0021054802F036FEBDE8084076
S315000049A00348FEF7F7BE00BFF47801202CF005009F
S315000049B0B0C9002070B5104C2369D3E901121868FC
S315000049C01268904790B965682DB10246D5E9000195
S315000049D01C2306F069FF206838B1D0E90001BDE864
S315000049E070403423012206F0F5BD70BD6721034BEC
S315000049F0034A044854F032FDC0000020ACE3050031
S31500004A007CF005005CF0050008B5EFF31082012389
S31500004A1083F310885A4D2B681BB940205949CB7037
S31500004A20C8702B6801332B6082F31088564C574EA2
S31500004A30D4F8D8304FF47A71334043F00503C4F804
S31500004A40D830D4F8DC303220334043F00503C4F8C4
S31500004A50DC3054F00BFDD4F8D8304FF47A71334083
S31500004A6043F00403C4F8D830D4F8DC3032203340A5
S31500004A7043F00403C4F8DC3054F0F8FCD4F8D83022
S31500004A804FF47A71334043F00503C4F8D830D4F8B4
S31500004A90DC303220334043F00503C4F8DC3054F0F8
S31500004AA0E5FCEFF31082012383F310882B6813B122
S31500004AB02B68013B2B602B681BB980203149CB70DA
S31500004AC0C87082F31088FFF775FF642006F07AF845
S31500004AD001F014FA642006F075F801F0F7FA4FF4C5
S31500004AE07A71084654F0C2FC294807F08BF84FF457
S31500004AF07A71284C2060084654F0B8FC01F046FD57
S31500004B0000F09EFF032000F0E5FF4FF47A7108469F
S31500004B1054F0ACFC204807F075F84FF47A71206029
S31500004B20084654F0A3FC01F05FFD01F091FD4FF43F
S31500004B307A71084654F09AFC184807F063F84FF467
S31500004B407A712060084654F091FC154807F05AF82F
S31500004B504FF47A712060084654F088FC114807F03B
S31500004B6051F84FF47A712060084654F07FFCFFF745
S31500004B700DFF01F0F7F9322006F024F8F9E700BF3F
S31500004B8050A40120000D084000080840FE3FFEFF2B
S31500004B902470012070BB0020846E0120B46D0120BA
S31500004BA0546F0120F47101208022F0B5434C83B08C
S31500004BB023788DF8072033B10023012221467F2078
S31500004BC0237001F0A1FD01220DF10701062001F07D
S31500004BD09BFD322005F0F6FF002000210122384D12
S31500004BE0384E4FF0100CC5E90001C5E90201C5E9D0
S31500004BF00401C6E90001C6E90201C6E90401002074
S31500004C003149324B0A703249324F81F800C025785B
S31500004C1031493A70C3E90001C3E90201C3E904015D
S31500004C202DB100237F202549237001F06DFD00255D
S31500004C30012206200DF107018DF8075001F02AFD2B
S31500004C409DF80730254A03F0BF03137022788DF8CC
S31500004C5007302AB101227F201849257001F054FD42
S31500004C60012206200DF1070101F04EFD01222378F5
S31500004C708DF80720022B05D020237F200F492370B3
S31500004C8001F042FD012209200DF1070101F03CFD72
S31500004C90012223788DF80720022B05D020237F20C0
S31500004CA00649237001F030FD01220DF107010920AC
S31500004CB001F02AFD002003B0F0BD00BFF8BB0020C4
S31500004CC030BC002090BB002048BC002078BB0020F0
S31500004CD0F9BB0020A8BB00200000F03F68BC002004
S31500004CE000B50E4983B00B782BB1002301227F203B
S31500004CF00B7001F009FD002001220DF107018DF86E
S31500004D00070001F0C7FC9DF80700A0F1EA00B0FA21
S31500004D1080F0400903B05DF804FB00BFF8BB00203B
S31500004D2030B51C4D04462B7883B0022B06D02023C9
S31500004D30012229467F202B7001F0E6FC0023012288
S31500004D4014200DF107018DF8073001F0A3FC9DF842
S31500004D500730114A23F0060343EA4403DBB213701B
S31500004D602A788DF80730022A06D0202301227F20D8
S31500004D7008492B7001F0C8FC01220DF1070114202F
S31500004D8001F0C2FC0120054B00FA04F41C7003B0CC
S31500004D9030BD00BFF8BB002068BC0020A8BB0020C7
S31500004DA030B5204D04462A7883B0022A06D0202347
S31500004DB0012229467F202B7001F0A6FC0023012248
S31500004DC014200DF107018DF8073001F063FC082C63
S31500004DD09DF8073015D023F0380343F0010343EA6A
S31500004DE0C4002B78104AC0B2022B10708DF8070051
S31500004DF010D101220DF10701142001F085FC03B04A
S31500004E0030BD2A78084903F0FE03022A0B708DF89C
S31500004E100730EED02023012202497F202B7001F0BB
S31500004E2073FCE6E7F8BB002068BC002000B50B4920
S31500004E3083B00B788DF80700022B05D020230122C2
S31500004E407F200B7001F060FC01220DF1070110209C
S31500004E5001F05AFC03B05DF804FB00BFF8BB00206C
S31500004E6030B51C4D04462B7883B0022B06D0202388
S31500004E70012229467F202B7001F046FC01220023E7
S31500004E8010460DF107018DF8073001F003FC9DF87F
S31500004E900730114A23F0060343EA4403DBB21370DA
S31500004EA02A788DF80730022A06D0202301227F2097
S31500004EB008492B7001F028FC01220DF1070110466C
S31500004EC001F022FC0120054B00FA04F41C7003B02B
S31500004ED030BD00BFF8BB002068BC002048BC0020E5
S31500004EE030B5204D04462B7883B0022B06D0202304
S31500004EF0012229467F202B7001F006FC01220023A7
S31500004F0010460DF107018DF8073001F0C3FB082CA0
S31500004F109DF8072015D022F0380242EAC4032A7809
S31500004F20114943F00103DBB2022A0B708DF80730FA
S31500004F3010D101220DF10701104601F0E5FB03B087
S31500004F4030BD2B78084902F0FE02022B0A708DF85C
S31500004F500720EED02023012202497F202B7001F08A
S31500004F60D3FBE6E7F8BB002068BC002038B50B4D44
S31500004F7004462888C0BA55F021FBC4E900016888B8
S31500004F80C0BA55F01BFB02460B46A888C4E90223AB
S31500004F90C0BA55F013FBC4E9040138BDC8BB0020F4
S31500004FA038B50A4D0446E888C0BA55F007FBC4E98F
S31500004FB000012889C0BA55F001FBC4E902016889DD
S31500004FC0C0BA55F0FBFAC4E9040138BDC8BB0020DD
S31500004FD0002200232DE9F04FB24DDFF8E882297850
S31500004FE0C8E900230229C8E90223C8E904238DB0D1
S31500004FF006D02023012229467F202B7001F084FB56
S3150000500001220023104606A98DF8183001F042FB54
S315000050109DF81830A44C23F0380343F03103237075
S315000050208DF818302B78022B06D0202301227F2002
S315000050309C492B7001F068FB012206A9104601F07D
S3150000504063FB2B78022B06D0202301227F20954973
S315000050502B7001F059FB01220023104606A98DF89A
S31500005060183001F017FB9DF8183003F0F903237090
S315000050708DF818302B78022B06D0202301227F20B2
S3150000508088492B7001F040FB012206A9104601F069
S315000050903BFB0122854B1A702B78022B05D020236F
S315000050A07F2080492B7001F02FFB00230122142062
S315000050B006A98DF8183001F0EDFA9DF8183003F0C6
S315000050C0F90323708DF818302B78022B06D0202395
S315000050D001227F2073492B7001F016FB0122142058
S315000050E006A901F011FB0122714B1A702B78022BD5
S315000050F005D020237F206B492B7001F005FB002390
S315000051000122142006A98DF8183001F0C3FA9DF883
S3150000511018302A7823F0380343F03103022A23702B
S315000051208DF8183006D0202301227F205D492B7090
S3150000513001F0EAFA012206A9142001F0E5FA4FF47B
S315000051407A71322054F092F932244FF0000BDFF8D6
S3150000515054A1DFF86C912B7833B1012251467F20A0
S3150000516085F800B001F0D0FA142249462D2001F04E
S3150000517091FA6846FFF7FAFEDDE90023D8E9000157
S3150000518055F0D0F8DDE9022306460F46D8E90201BC
S31500005190C8E9006755F0C6F8DDE9042306460F4660
S315000051A0D8E90401C8E9026755F0BCF802460B4687
S315000051B00A204FF47A71C8E9042354F057F9013CE8
S315000051C0C9D10022D8E900013A4B55F08BFB0022E9
S315000051D0C8E90001D8E90201364B55F083FB0022ED
S315000051E0C8E90201D8E90401324B55F07BFB0022E5
S315000051F0314B55F095F83226C8E904012F4CDFF8FB
S31500005200A4A02F4F2B7833B10023012251467F20D3
S315000052102B7001F079FA142239462D2001F03AFA62
S3150000522006A8FFF7BDFEDDE90623D4E9000155F027
S3150000523079F8DDE9082380468946D4E90201C4E904
S31500005240008955F06FF8DDE90A2380468946D4E9DE
S315000052500401C4E9028955F065F802460B460120AF
S31500005260C4E9042301F0FAFA013ECBD1D4E90001E6
S315000052700022104B55F036FB0022C4E90001D4E9A8
S3150000528002010C4B55F02EFB0022C4E90201D4E9C1
S315000052900401084B55F026FBC4E904010DB0BDE836
S315000052A0F08F00BFF8BB002068BC002048BC00207F
S315000052B0A8BB0020000049400000D04030BC0020C0
S315000052C0C8BB002090BB002070B52DED028B184B9B
S315000052D09FED188AB3F90E20B3F9106007EE902AF5
S315000052E0F8EEE77A67EE887A044617EE900AB3F985
S315000052F0125055F075F907EE906AF8EEE77A67EE08
S31500005300887AC4E9000117EE900A55F069F907EEAC
S31500005310905AF8EEE77A67EE887AC4E9020117EE4A
S31500005320900A55F05DF9BDEC028BC4E9040170BD2D
S31500005330C8BB00208716193E0C2230B5424C83B0FC
S3150000534023780546032B8DF8072006D0302301224B
S3150000535021467F20237001F0D7F9012203200DF1A9
S31500005360070101F0D1F9312223788DF80720032BAC
S3150000537006D0302301227F203349237001F0C4F97F
S31500005380012204200DF1070101F0BEF923788DF802
S315000053900750032B06D0302301227F202A49237091
S315000053A001F0B2F90DF107010122062001F0ACF976
S315000053B04FF47A710A2054F059F80DB903B030BD94
S315000053C08C2223788DF80720032B35D10122032068
S315000053D00DF1070101F098F9112223788DF80720C5
S315000053E0032B21D1012204200DF1070101F08CF9D4
S315000053F0882223788DF80720032B0DD10DF10701A4
S315000054000122052001F080F94FF47A710A2003B0D9
S31500005410BDE8304054F02AB8302301220A497F20E3
S31500005420237001F071F9E9E73023012206497F2054
S31500005430237001F069F9D5E73023012202497F2064
S31500005440237001F061F9C1E7F8BB00202DE9F041B6
S31500005450224E0446307855F0B1F8DFF888800246CF
S315000054600B46D8E9000155F03DFA1D4D02460B46A4
S31500005470D4E9000154F054FFD5E9002355F032FA7F
S31500005480C4E90001307855F099F806460F46D8E988
S31500005490020132463B4655F025FA02460B46D4E950
S315000054A0020154F03DFFD5E9022355F01BFA3246BE
S315000054B03B46C4E90201D8E9040155F013FA024655
S315000054C00B46D4E9040154F02BFFD5E9042355F02B
S315000054D009FAC4E90401BDE8F08100BFA8BB0020B9
S315000054E078BB002090BB0020D0B586B00446194E8C
S315000054F06846FFF73BFD6846FFF7A8FF307855F092
